:100000000C9453000C9470000C9470000C947000CD
:100010000C9470000C9470000C9470000C947000A0
:100020000C9470000C9470000C9470000C94700090
:100030000C9470000C9470000C9470000C94700080
:100040000C9470000C9470000C9487010C94700058
:100050000C9470000C9470000C9470000C94700060
:100060000C9470000C947000556E65736974652073
:1000700062726F6A206E3A0D0A00556E657369747C
:10008000652072617A6C696B753A0D0A00556E6570
:1000900073697465207072766920656C656D656E34
:1000A000743A0D0A000011241FBECFEFD8E0DEBF66
:1000B000CDBF11E0A0E0B1E0E0EAF5E002C00590BC
:1000C0000D92A831B107D9F711E0A8E1B1E001C064
:1000D0001D92AB35B107E1F70E9480000C94CE026F
:1000E0000C94000041505040469F9001479F300DB6
:1000F000569F300D1124280F391FC9010895089506
:100100000F931F93CF93DF9360E875E280E090E058
:100110000E94B301C0E9D1E08DE890E00E94EB01BC
:100120000E94D3018823E1F388EE93E0FE0131972A
:10013000F1F70197D9F780E090E00E948E028AE7FC
:1001400090E00E94EB010E94D3018823E1F388EE46
:1001500093E0FE013197F1F70197D9F780E090E045
:100160000E948E0288E690E00E94EB010E94D3017B
:100170008823E1F388EE93E0FE013197F1F70197D0
:10018000D9F700E010E0C8010E948E0280E091E003
:100190000E94DE0180E090E060E070E0A8010E9433
:1001A00072000E94DE01B8CF8130F9F0813020F07A
:1001B000823009F04BC032C0413059F425B181E0A2
:1001C00090E002C0880F991F6A95E2F7282B25B9A5
:1001D000089525B181E090E002C0880F991F6A95CB
:1001E000E2F78095822385B90895413059F428B10A
:1001F00081E090E002C0880F991F6A95E2F7282BF2
:1002000028B9089528B181E090E002C0880F991FB5
:100210006A95E2F78095822388B90895413059F4B0
:100220002BB181E090E002C0880F991F6A95E2F738
:10023000282B2BB908952BB181E090E002C0880FE4
:10024000991F6A95E2F7809582238BB908958130D2
:10025000F9F0813020F0823009F04BC032C04130DB
:1002600059F424B181E090E002C0880F991F6A958B
:10027000E2F7282B24B9089524B181E090E002C070
:10028000880F991F6A95E2F78095822384B90895B3
:10029000413059F427B181E090E002C0880F991FE6
:1002A0006A95E2F7282B27B9089527B181E090E0FD
:1002B00002C0880F991F6A95E2F78095822387B95B
:1002C0000895413059F42AB181E090E002C0880FCE
:1002D000991F6A95E2F7282B2AB908952AB181E07F
:1002E00090E002C0880F991F6A95E2F780958223FB
:1002F0008AB9089580911801882311F48FEF089529
:10030000E0911901F0E0E55EFE4F808108951F92B3
:100310000F920FB60F9211248F939F93EF93FF9339
:1003200080911A019091C600E82FF0E0E55EFE4F43
:1003300090838F5F80931A0180911A018F7380934D
:100340001A0180911801803428F4809118018F5F80
:1003500080931801FF91EF919F918F910F900FBEA5
:100360000F901F9018959B01AC0180E28093C00014
:1003700088E98093C10086E08093C20084E0220F68
:10038000331F441F551F8A95D1F760E074E284EF54
:1003900090E00E94AC02215030403093C500209381
:1003A000C40078940895809118010895982F809141
:1003B000C00085FFFCCF9093C6000895FC0107C0E4
:1003C0008091C00085FFFCCF9093C600319690814C
:1003D0009923B1F708959C01F9012F5F3F4F949144
:1003E000992339F08091C00085FFFCCF9093C6001F
:1003F000F3CF089580911801882311F4EFEF14C012
:1004000080911901E82FF0E0E55EFE4FE0818F5FFB
:1004100080931901809119018F7380931901809144
:1004200018018150809318018E2F08951F93CF9348
:10043000DF9302C00E94FA0180911801882341F0E5
:10044000E0911901F0E0E55EFE4F8081803364F4B5
:1004500080911801882371F3E0911901F0E0E55EC5
:10046000FE4F80818D3231F780911801882341F051
:10047000E0911901F0E0E55EFE4F80818A33D4F609
:1004800080911801882361F0E0911901F0E0E55EA8
:10049000FE4F80818D3221F40E94FA011FEF01C0CE
:1004A00011E0C0E0D0E012C00E94FA019E0143E0DA
:1004B000220F331F4A95E1F7CC0FDD1FC20FD31F68
:1004C000E097992787FD9095C80FD91F8091180153
:1004D0008823A1F0E0911901F0E0E55EFE4F8081F4
:1004E000803364F0809118018823F1F2E0911901C2
:1004F000F0E0E55EFE4F80818A33B4F2812F9927C8
:1005000087FD9095C89F9001C99F300DD89F300DF1
:100510001124C901DF91CF911F910895EF92FF92AD
:100520001F93CF93DF937C0110E006C00E94FA0175
:10053000CE0DDF1D88831F5F80911801C12FD0E091
:100540008823A1F7CE0DDF1D1882812FDF91CF9177
:100550001F91FF90EF900895A1E21A2EAA1BBB1BDA
:10056000FD010DC0AA1FBB1FEE1FFF1FA217B3077F
:10057000E407F50720F0A21BB30BE40BF50B661F95
:10058000771F881F991F1A9469F760957095809559
:1005900090959B01AC01BD01CF010895F894FFCF68
:1005A0006E2D746920656C656D656E74206E697A58
:0805B00061206A653A20000099
:00000001FF
